:1000000019C033C032C0E7C030C02FC02EC02DC0D1
:100010002CC02DC12AC029C028C027C026C025C099
:1000200024C023C022C021C020C01FC01EC01DC0CC
:100030001CC01BC011241FBECFEFD2E0DEBFCDBF5E
:1000400011E0A0E0B1E0E4ECF7E002C005900D9211
:10005000A030B107D9F721E0A0E0B1E001C01D92C6
:10006000A532B207E1F711D1ABC3CACF92E091B983
:100070008BE589B980E587B986B981E0809368000E
:10008000EBE6F0E080818160808384B5836F84BD7E
:1000900085B5816085BDE8EEF0E080818064808375
:1000A000A9EEB0E08C9181608C9380818E7F8083FB
:1000B00080818B7F8083E2EEF0E0808182608083AC
:1000C00080818E7F8083509A519A539A549A80816E
:1000D0008860808380818F7E808317BC18BC1092DB
:1000E00080008AE08093810020EA3FE0309389001D
:1000F0002093880090936F001092850010928400E6
:1001000078942FEF81E19AE7215080409040E1F709
:1001100000C00000E7E0F1E0808191819093180138
:10012000809317012FEF80E792E0215080409040AC
:10013000E1F700C0000082819381909322018093B7
:100140002101569A089586B5809102018823E1F134
:1001500010920201E5E0F1E080818F5F8083809161
:100160000101882311F0569A01C0569896B58091E6
:100170000501981740F080910201811104C013C05D
:10018000569801C0569A809105018F3F21F48091C5
:100190000001811110C08091050181111BC081E017
:1001A00080930001089581E0809302018091010114
:1001B0008111E6CFE7CF9091010181E089278093FB
:1001C000010110920001E7CF86B5909105018917D2
:1001D00050F7D9CF08951F920F920FB60F921124A6
:1001E0002F933F938F939F93AF93BF93EF93FF937F
:1001F000009930C0809103019091040118161906EE
:10020000E4F42091840030918500A7E0B1E0880FEC
:10021000991FFC01EB5FFE4F318320838D919C91F0
:10022000119790931A018093190112968D919C91C8
:1002300013979093240180932301109285001092CC
:100240008400809103019091040101969093040130
:1002500080930301FF91EF91BF91AF919F918F9197
:100260003F912F910F900FBE0F901F9018951F92E6
:100270000F920FB60F9211241092040110920301F5
:100280000F900FBE0F901F901895F0DEC2EED0E0D9
:100290000EEF11E02091190130911A0180911701A0
:1002A0009091180128173907D8F180911901909180
:1002B0001A012091170130911801821B930B909322
:1002C0001401809313012091130130911401809146
:1002D0002301909124018217930728F410921E01A4
:1002E00010921D010EC08091230190912401209154
:1002F000130130911401821B930B90931E01809384
:100300001D012091230130912401809113019091CE
:100310001401820F931F90931C0180931B013AC01C
:1003200080911701909118012091190130911A01C3
:10033000821B930B9093140180931301209113015E
:100340003091140180912301909124018217930729
:1003500028F410921C0110921B010EC08091230101
:10036000909124012091130130911401821B930B71
:1003700090931C0180931B01209123013091240153
:100380008091130190911401820F931F90931E018D
:1003900080931D0120911D0130911E01809121014A
:1003A0009091220128173907C8F180911D01909181
:1003B0001E012091210130912201821B930B909309
:1003C000200180931F0180911F01909120018F3F98
:1003D000914020F01093200100931F0160911F01B4
:1003E0007091200180E090E0F2D020E030E040E029
:1003F0005FE353D1C0D07093200160931F018881C7
:100400008160888388818D7F888384B5806484BD82
:1004100080911F019091200187BD35C080912101FD
:100420009091220120911D0130911E01821B930B9E
:100430009093200180931F0180911F0190912001D2
:100440008F3F914020F01093200100931F01609195
:100450001F017091200180E090E0B9D020E030E0F1
:1004600040E05FE31AD187D07093200160931F01B1
:1004700088818260888388818E7F888380911F0134
:100480009091200187BD20911B0130911C0180912A
:1004900021019091220128173907B0F180911B01A9
:1004A00090911C012091210130912201821B930B1C
:1004B000909316018093150180911501909116017A
:1004C0008F3F914020F01093160100931501609129
:1004D00015017091160180E090E079D020E030E0C5
:1004E00040E05FE3DAD047D07093160160931501C6
:1004F00088818860888388818F7E888380911501B8
:100500009091160188BD35C0809121019091220102
:1005100020911B0130911C01821B930B90931601BB
:100520008093150180911501909116018F3F9140A4
:1005300020F010931A010093190160911501709138
:10054000160180E090E043D020E030E040E05FE33F
:10055000A4D011D070931601609315018881806139
:1005600088838881877F8883809115019091160107
:1005700088BDE9DD8FCE70D088F09F5790F0B92FFD
:100580009927B751A0F0D1F0660F771F881F991FE8
:100590001AF0BA95C9F712C0B13081F077D0B1E046
:1005A000089574C0672F782F8827B85F39F0B93F56
:1005B000CCF3869577956795B395D9F73EF49095EA
:1005C0008095709561957F4F8F4F9F4F0895E89468
:1005D00009C097FB3EF490958095709561957F4F8B
:1005E0008F4F9F4F9923A9F0F92F96E9BB27939539
:1005F000F695879577956795B795F111F8CFFAF449
:10060000BB0F11F460FF1BC06F5F7F4F8F4F9F4F79
:1006100016C0882311F096E911C0772321F09EE8D7
:10062000872F762F05C0662371F096E8862F70E03D
:1006300060E02AF09A95660F771F881FDAF7880F17
:100640009695879597F9089557FD9058440F551F33
:1006500059F05F3F71F04795880F97FB991F61F044
:100660009F3F79F087950895121613061406551FBB
:10067000F2CF4695F1DF08C0161617061806991F27
:10068000F1CF86957105610508940895E894BB271C
:1006900066277727CB0197F908950AD080C071D0DB
:1006A00028F076D018F0952309F062C067C0EFCF2C
:1006B000CBDFA8F39923D9F35523C9F3950F50E065
:1006C000551FAA27EE27FF27BB270024089467950C
:1006D00020F4E20FF31FB41F0A1E220F331F441F22
:1006E000AA1F6695A9F7779530F4F30FB41F0A1E79
:1006F000121E08F46395330F441FAA1F221F76951C
:1007000099F7879520F4B40F0A1E121E631F440F39
:10071000AA1F221F331F8695A9F7862F712D602DE2
:1007200011249F5750408AF0E1F088234AF0EE0FE1
:10073000FF1FBB1F661F771F881F91505040A9F7EE
:100740009E3F510570F014C0A2CF5F3FECF3983E7E
:10075000DCF3869577956795B795F795E7959F5F55
:10076000C1F7FE2B880F911D9695879597F90895EF
:1007700097F99F6780E870E060E008959FEF80EC54
:10078000089500240A9416161706180609060895F7
:1007900000240A9412161306140605060895092E5D
:1007A0000394000C11F4882352F0BB0F40F4BF2BCC
:1007B00011F460FF04C06F5F7F4F8F4F9F4F08950C
:0407C000F894FFCFDB
:00000001FF
