S0110000657363332E36616D702E7372656303
S113000019C033C032C016C130C02FC02EC02DC09D
S11300102CC0A6C12AC029C028C027C026C025C01C
S113002024C023C022C021C020C01FC01EC01DC0C8
S11300301CC01BC011241FBECFEFD2E0DEBFCDBF5A
S113004011E0A0E0B1E0E6E1F6E002C005900D9217
S1130050A230B107D9F721E0A2E0B1E001C01D92BE
S1130060A332B207E1F78BD1D4C2CACF8BE589B9E9
S113007080E587B986B9569A81E080936800EBE6FB
S1130080F0E080818360808384B5836F84BD85B50F
S1130090816085BDE8EEF0E0808180648083A9EE14
S11300A0B0E08C9181608C9380818E7F808380818D
S11300B08B7F8083E2EEF0E08081826080838081A8
S11300C08E7F8083509A519A539A549A8081886083
S11300D0808380818F7E808317BC18BC109280003F
S11300E08AE08093810080E09FEF90938900809361
S11300F08800109285001092840078942FE78AE19A
S113010096E0215080409040E1F700C000002FE7C6
S11301108AE196E0215080409040E1F700C0000061
S11301202FE78AE196E0215080409040E1F700C03B
S113013000002FE78AE196E0215080409040E1F7EB
S113014000C000002FE78AE196E0215080409040F3
S1130150E1F700C000008091130190911401909385
S113016012018093110180911101909112019093D9
S11301701601809315012FE78AE196E02150804013
S11301809040E1F700C0000080911F019091200190
S113019090931E0180931D0180911D0190911E0179
S11301A09093220180932101089586B580910601E0
S11301B08823C9F110920601E7E0F1E080818F5FA6
S11301C0808380910501882311F0569A01C05698C6
S11301D096B580910701981770F0809106018111FE
S11301E00AC081E08093060180910501882311F003
S11301F0569801C0569A809107018F3F61F480910F
S11302000401882341F09091050181E089278093BE
S11302100501109204018091070181110AC081E057
S113022080930401089596B5809107019817C8F644
S1130230E2CF08951F920F920FB60F9211242F93BD
S11302403F938F939F93019922C080910301882348
S1130250B9F1209184003091850080910B01909137
S11302600C018217930770F48091840090918500AB
S113027020910B0130910C01821B930B909314017C
S113028080931301109203011092000119C0809110
S11302900101882331F0109285001092840010929D
S11302A001018091030181110BC080918400909120
S11302B0850090930C0180930B0181E080930301EE
S11302C0009921C080910201882309F440C0209143
S11302D08400309185008091090190910A01821770
S11302E0930770F480918400909185002091090116
S11302F030910A01821B930B9093200180931F017C
S11303001092020124C080910101882331F01092DF
S113031085001092840010920101809102018111E4
S11303200BC0809184009091850090930A01809382
S1130330090181E080930201019909C0009907C075
S113034081E08093010110928500109284009F91B6
S11303508F913F912F910F900FBE0F901F90189582
S11303601F920F920FB60F9211248F9381E0809306
S113037000018F910F900FBE0F901F90189576DE9D
S1130380C2EED0E00EEF11E08091130190911401C0
S113039090930E0180930D0180911F019091200193
S11303A090931A018093190120910D0130910E014F
S11303B080911101909112012817390758F1809109
S11303C00D0190910E012091110130911201821BB7
S11303D0930B90930E0180930D01809119019091DC
S11303E01A0120910D0130910E01821B930B909301
S11303F01801809317012091190130911A018091FD
S11304000D0190910E01820F931F90931A01809316
S113041019012AC0809111019091120120910D01BE
S113042030910E01821B930B90930E0180930D016A
S11304302091190130911A0180910D0190910E01C2
S1130440820F931F909318018093170180911901D3
S113045090911A0120910D0130910E01821B930B92
S113046090931A01809319012091190130911A0176
S113047080911D0190911E012817390790F18091F8
S1130480190190911A0120911D0130911E01821BC6
S1130490930B90931C0180931B0180911B019091FD
S11304A01C018F3F914020F010931C0100931B010D
S11304B080911B0190911C019695879590931C0146
S11304C080931B0188818160888388818D7F8883E4
S11304D084B5806484BD80911B0190911C0187BD0B
S11304E02EC080911D0190911E012091190130911F
S11304F01A01821B930B90931C0180931B01809122
S11305001B0190911C018F3F914020F010931C011E
S113051000931B0180911B0190911C019695879576
S113052090931C0180931B01888182608883888159
S11305308E7F888380911B0190911C0187BD20913F
S113054017013091180180911D0190911E01281707
S1130550390778F1809117019091180120911D01BC
S113056030911E01821B930B9093100180930F0115
S113057080910F01909110018F3F914020F01093D2
S1130580100100930F0180910F0190911001969535
S113059087959093100180930F01888188608883E8
S11305A088818F7E888380910F019091100188BD8E
S11305B02EC080911D0190911E0120911701309150
S11305C01801821B930B9093100180930F0180916B
S11305D00F01909110018F3F914020F0109314016E
S11305E00093130180910F019091100196958795C6
S11305F09093100180930F018881806188838881A2
S1130600877F888380910F019091100188BDCDDD93
S1090610BBCEF894FFCFFD
S10506160101DC
S9030000FC
